:100000000C946F070C94B6070C94B6070C94B607C3
:100010000C94B6070C94B6070C94B6070C94B6076C
:100020000C94B6070C94B6070C94C4250C94802548
:100030000C941A2B0C94B6070C94B6070C94B607C4
:100040000C94B6070C94B6070C94B6070C94B6073C
:100050000C94B6070C94F62A0C94B6070C94B607C9
:100060000C94B6070C94B6070C94B6070C94B6071C
:100070000C94B6070C94B6070C94B6070C94B6070C
:100080000C94B6070C94B6070C94B6070C94B607FC
:100090000C94B6070C94B6070C94B6070C94B607EC
:1000A0000C94B6070C94B6070C94B6070631FF09FA
:1000B00074A1010975150026FF00952075088102BD
:1000C0000976150026FF00952075089102C00501EC
:1000D0000980A101850319012AB700150126B7007F
:1000E000950175108100C0050C0901A10185041955
:1000F000012AA002150126A002950175108100C0F9
:1001000005010906A1018505050719E029E7150084
:1001100025019508750181020507190029EF1500D1
:10012000250195F07501810205081901290595053C
:1001300075019102950175039101C005010906A1A0
:1001400001050719E029E7150025019508750181CA
:10015000029501750881010507190029FF15002680
:10016000FF00950675088100050819012905950508
:1001700075019102950175039101C0000101010112
:100180000101010101020202020202020202030352
:100190000303030303030404040404040405050522
:1001A00005050606060606070707070708080808E4
:1001B000090909090A0A0A0B0B0B0C0C0C0D0D0D91
:1001C0000E0E0E0F0F0F1010111111121213131427
:1001D00014151516161717181819191A1A1B1B1C9F
:1001E0001D1D1E1E1F2020212222232424252626F9
:1001F000272829292A2B2C2D2D2E2F30313232332E
:100200003435363738393A3B3C3D3E3F4041424336
:100210004445464748494A4C4D4E4F50515354551A
:100220005658595A5B5D5E5F616264656668696BCA
:100230006C6D6F7072737577787A7B7D7E80828348
:100240008587888A8C8E8F91939596989A9C9EA08C
:10025000A2A3A5A7A9ABADAFB1B3B5B7BABCBEC099
:10026000C2C4C6C9CBCDCFD1D4D6D8DBDDDFE2E462
:10027000E7E9EBEEF0F3F5F8FAFDFF7267626C69FF
:10028000676874206D6F6465205B4E4F4545505222
:100290004F4D5D3A2025750A007267626C69676888
:1002A00074206D6F6465205B454550524F4D5D3A3B
:1002B0002025750A007267626C696768742073652F
:1002C0007420687376205B4E4F454550524F4D5D0C
:1002D0003A2025752C25752C25750A007267626CED
:1002E000696768742073657420687376205B454580
:1002F00050524F4D5D3A2025752C25752C25750AD9
:10030000007267626C69676874207261696E626FFF
:100310007720736574206873763A2025642C2564F1
:100320002C25642C25750A00FFAA7F554072676250
:100330006C696768742074696D657220656E6162AE
:100340006C65642E0A007267626C69676874207459
:10035000696D65722064697361626C652E0A0022A2
:1003600023252628292A2C2D2F3032333536383AAA
:100370003B3D3E4042434547494A4C4E5051535500
:1003800057595A5C5E6062646668696B6D6F717321
:100390007577797B7D7F81838587898A8C8E909222
:1003A0009496989A9C9E9FA1A3A5A7A8AAACAEAF2D
:1003B000B1B3B4B6B8B9BBBCBEBFC1C2C3C5C6C772
:1003C000C9CACBCCCDCED0D1D2D2D3D4D5D6D7D723
:1003D000D8D9D9DADADBDBDBDCDCDCDCDCDDDDDD6B
:1003E000DDDCDCDCDCDCDBDBDBDADAD9D9D8D7D767
:1003F000D6D5D4D3D2D2D1D0CECDCCCBCAC9C7C614
:10040000C5C3C2C1BFBEBCBBB9B8B6B4B3B1AFAE51
:10041000ACAAA8A7A5A3A19F9E9C9A9896949290F7
:100420008E8C8A89878583817F7D7B7977757371CF
:100430006F6D6B6968666462605E5C5A59575553AC
:1004400051504E4C4A4947454342403E3D3B3A3865
:1004500036353332302F2D2C2A2928262523227297
:1004600067626C696768742064697361626C652097
:100470005B454550524F4D5D3A207267626C69672B
:1004800068745F636F6E6669672E656E61626C6526
:10049000203D2025750A007267626C6967687420C8
:1004A000656E61626C65205B454550524F4D5D3A0B
:1004B000207267626C696768745F636F6E666967F4
:1004C0002E656E61626C65203D2025750A0072679D
:1004D000626C6967687420746F67676C65205B4540
:1004E0004550524F4D5D3A207267626C696768747F
:1004F0005F636F6E6669672E656E61626C65203D35
:100500002025750A0044454255473A2064697361C5
:10051000626C65642E0A0044454255473A20656E78
:1005200061626C65642E0A0035001E001F00200009
:10053000210022002D0029002E0023002400250088
:10054000260027002A002B0014001A0008001500BE
:1005500017002F004A0030001C0018000C00120089
:1005600013004C00390004001600070009000A00BF
:1005700034004D0031000B000D000E000F00330061
:100580002800E1001D001B000600190005004B00BB
:1005900052004E0011001000360037003800E10014
:1005A000E000E3000000E2002C00000050005100D9
:1005B0004F002C000000E6000000E40001510100A3
:1005C0003A003B003C003D003E00010001000100FC
:1005D0003F004000410042004300010001000100D3
:1005E0000100010001000100010001000100010003
:1005F000010001000100005C010001000100010098
:1006000001000100010001000100010001000100E2
:1006100001000100010001000100C35CC45CCE5C6C
:10062000D55C010001000100010001000100010092
:1006300001000100010001000100000001000100B3
:1006400000000100010001000100000001000000A5
:10065000010001003F00433E20006164645F6B6560
:10066000795F6269743A2063616E27742061646403
:100670003A20253032580A0064656C5F6B65795FFB
:100680006269743A2063616E27742064656C3A2055
:10069000253032580A000A002530325820006B6598
:1006A00079626F6172645F7265706F72743A200074
:1006B0000A002575002E6E6B726F3A20000A002525
:1006C00075002E737761705F6261636B736C617329
:1006D000685F6261636B73706163653A20000A0052
:1006E0002575002E737761705F67726176655F654F
:1006F00073633A20000A002575002E6E6F5F6775E0
:10070000693A20000A002575002E737761705F72C8
:10071000616C745F726775693A20000A0025750084
:100720002E737761705F6C616C745F6C6775693A8A
:1007300020000A002575002E737761705F72637464
:100740006C5F726775693A20000A002575002E7388
:100750007761705F6C63746C5F6C6775693A2000D9
:100760000A002575002E636170736C6F636B5F7494
:100770006F5F636F6E74726F6C3A20000A002575AC
:10078000002E737761705F636F6E74726F6C5F635E
:100790006170736C6F636B3A20000A002530325829
:1007A000006B65796D61705F636F6E6669672E724D
:1007B00061773A20000A002575002E6D6F7573650C
:1007C0003A20000A002575002E6B6579626F617210
:1007D000643A20000A002575002E6D6174726978F4
:1007E0003A20000A002575002E656E61626C653A3C
:1007F00020000A00253032580064656275675F6327
:100800006F6E6669672E7261773A20000A0025755F
:100810000064656661756C745F6C617965723A201D
:10082000000A092D204D61676963202D0A443A09A9
:100830004465627567204D65737361676520546F09
:1008400067676C650A583A094D617472697820448B
:1008500065627567204D6F646520546F67676C65CE
:10086000202D2053686F77206B65797072657373E4
:10087000657320696E206D61747269782067726992
:10088000640A4B3A094B6579626F61726420446572
:1008900062756720546F67676C65202D2053686F01
:1008A00077206B65797072657373207265706F72F3
:1008B000740A4D3A094465627567204D6F7573651A
:1008C00020546F67676C650A563A095665727369FA
:1008D0006F6E0A533A095374617475730A433A0987
:1008E000416374697661746520436F6E736F6C65E4
:1008F000204D6F64650A46312D4631303A095377F1
:100900006974636820746F204C6179657220302DA2
:10091000392028463130203D204C30290A302D39ED
:100920003A0953776974636820746F204C61796564
:100930007220302D390A47524156453A095377699A
:1009400074636820746F204C6179657220302028B0
:10095000616C7465726E617465290A423A094A7560
:100960006D7020746F20426F6F746C6F616465727C
:100970000A4553433A094A756D7020746F20426FDF
:100980006F746C6F616465722028616C7465726E3F
:10099000617465290A453A095072696E74204545AB
:1009A00050524F4D2053657474696E67730A4253F9
:1009B000504143453A09436C6561722045455052A8
:1009C0004F4D0A4E3A094E4B524F20546F67676C99
:1009D000650A000A092D20436F6E736F6C65202D28
:1009E0000A4553432F713A09717569740A004743E8
:1009F000433A20382E342E30204156522D4C494255
:100A0000433A20322E302E30204156525F4152431D
:100A1000483A20617672350A004F5054494F4E5380
:100A20003A204C5546412045585452414B45592097
:100A3000434F4E534F4C4520434F4D4D414E442064
:100A40004E4B524F204C544F20343039360A00421E
:100A500055494C443A2020284665622032352032E0
:100A6000303231290A005649443A2030783534353D
:100A7000332874737A61626F6F29205049443A2099
:100A8000307837393334286F7274686F346578651D
:100A90006E7429205645523A203078303030310A71
:100AA000000A092D2056657273696F6E202D0A00A9
:100AB00074696D65725F72656164333228293A200A
:100AC0002530346C580A006B65796D61705F636F17
:100AD0006E6669672E6E6B726F3A2025580A006B3E
:100AE0006579626F6172645F69646C653A2025584C
:100AF0000A006B6579626F6172645F70726F746F08
:100B0000636F6C3A2025580A00686F73745F6B65D9
:100B100079626F6172645F6C65647328293A20257D
:100B2000580A000A092D20537461747573202D0A28
:100B3000003F004E4B524F3A206F66660A004E4B04
:100B4000524F3A206F6E0A000A6D6F7573653A2036
:100B50006F66660A000A6D6F7573653A206F6E0ADC
:100B6000000A6B6579626F6172643A206F66660A8B
:100B7000000A6B6579626F6172643A206F6E0A00D9
:100B80000A6D61747269783A206F66660A000A6DB0
:100B900061747269783A206F6E0A000A6465627542
:100BA000673A206F66660A000A64656275673A20D4
:100BB0006F6E0A000A0A4A756D70696E6720746F5D
:100BC00020626F6F746C6F616465722E2E2E200030
:100BD000433E2000436C656172696E672045455055
:100BE000524F4D0A006565636F6E6669673A0A0089
:100BF0004C25640A007267626C696768745F636F92
:100C00006E6669672E7370656564203D2025640AF1
:100C1000007267626C696768745F636F6E666967AC
:100C20002E76616C203D2025640A007267626C6933
:100C30006768745F636F6E6669672E736174203DC9
:100C40002025640A007267626C696768745F636F6D
:100C50006E6669672E687565203D2025640A0072FE
:100C600067686C696768745F636F6E6669672E6D2D
:100C70006F6465203D2025640A007267626C6967B5
:100C800068745F636F6E6669672E656E61626C651E
:100C9000203D2025640A007267626C696768745F92
:100CA000636F6E66696720454550524F4D3A0A00A2
:100CB0007267626C696768745F696E6974207267D5
:100CC000626C696768745F636F6E6669672E6D6FCB
:100CD0006465203D20302E2057726974652064655C
:100CE0006661756C742076616C75657320746F2015
:100CF000454550524F4D2E0A007267626C69676815
:100D0000745F696E6974206565636F6E66696720DC
:100D10006973206E6F7420656E61626C65642E0A63
:100D2000007267626C696768745F696E69742073CA
:100D300074617274210A007267626C696768745F1B
:100D4000696E69742063616C6C65642E0A00726759
:100D5000626C696768742064697361626C65205BAA
:100D60004E4F454550524F4D5D3A207267626C6957
:100D70006768745F636F6E6669672E656E61626C2B
:100D800065203D2025750A000A00253031366200B5
:100D90003A200025303258000A722F632030313259
:100DA000333435363738394142434445460A0032F8
:100DB000190A00047F3F1F643214643214783C1E09
:100DC0001E140A050A0025303258006B6579626FDF
:100DD0006172645F7365745F6C65643A20005B7375
:100DE0005D004B6579626F61726420737461727427
:100DF0002E0A005B435D005B445D005B535D007247
:100E000067626C6967687420656E61626C65205BFF
:100E10004E4F454550524F4D5D3A207267626C69A6
:100E20006768745F636F6E6669672E656E61626C7A
:100E300065203D2025750A005B575D005B525D0013
:100E400009025B00030100A0FA090400000103018C
:100E5000010009211101000122400007058103085A
:100E6000000A09040100010300000009211101002A
:100E700001226D000705820320000A090402000216
:100E8000030000000921110100012222000705834F
:100E900003200001070503032000011201100100D7
:100EA0000000085354347901000102000118036F57
:100EB000007200740068006F0034006500780065FF
:100EC000006E00740000001003740073007A00616B
:100ED0000062006F006F0000000403090400112489
:100EE0001FBECFEFDAE0DEBFCDBF04B603FE27C0E2
:100EF00080912F0390913003A0913103B091320380
:100F00008730904BA740B04BD1F410922F03109232
:100F10003003109231031092320314BE84B7877FDE
:100F200084BF0FB6F894A895809160008861809383
:100F30006000109260000FBEE0E0F8E3099523E046
:100F4000ACE9B1E001C01D92AF32B207E1F711E0A8
:100F5000A0E0B1E0EEE2FAE502C005900D92AC39F6
:100F6000B107D9F70E941B270C949E2C0C9400000B
:100F7000FF93EF93E0919C01F0919D01309709F070
:100F80000995EF91FF910895FC018591803011F052
:100F9000EFDFFBCF0895FF27E0E230E247FF0CC010
:100FA000419597FF09C0EDE2609570958095909509
:100FB000611D711D811D911D27FF02C0219530E328
:100FC00050E2AA27660F771F881F991FAA1FA41730
:100FD00010F0A41B63955A95A9F7AA3008F0A95FF1
:100FE000A05DAF93F395611571058105910541F7FA
:100FF000ED3211F4EF93F395F21718F43F93F39554
:10100000FBCF8F91B5DFFA95E1F70895E991F9915A
:101010008591803021F0853219F0AADFF9CF08954B
:1010200020E0E89455915532C1F3503311F468949F
:1010300055915A3348F4505390F3220F022E220F49
:10104000220F200D250FF4CF0EF42195899199914F
:10105000533619F3533729F1533559F1BC01882719
:101060009927E8945C3621F4899199916894559177
:10107000543639F446EF7EF077FF0DC08FEF9FEFC7
:101080000AC055374AE039F0583540E121F0523670
:1010900042E009F00895FF93EF937DDFEF91FF9118
:1010A000B7CFFF93EF93FC0181918030B9F360DFFC
:1010B000FBCFFF93EF9368DFF1CFDF93CF93CDB7F3
:1010C000DEB72596A3DFCF91DF910895E8EDF0E03C
:1010D00080818E7F80831092E2001092DA0010925D
:1010E000E100A0EEB0E08C9181608C9380818F77DD
:1010F000808319BCA7EDB0E08C918E7F8C938081AA
:101100008F7E80831092F50208952091E400309143
:10111000E50095E6A9012091EC00822F817020FF67
:1011200006C08091E80080FF06C080E0089520910D
:10113000E80022FD1AC080912203882389F08530BF
:1011400089F08091EB0085FD0FC02091E400309183
:10115000E50042175307F9F29150E1F684E0089553
:1011600082E0089583E0089581E00895EF92FF9270
:101170000F931F93CF937C018B010E948508C82F8A
:10118000811117C08091E80085FD0BC08091E800B7
:101190008E778093E8000E948508882399F3C82FF2
:1011A00008C0F70181917F018093F100015011097E
:1011B00049F78C2FCF911F910F91FF90EF900895D9
:1011C0008091240387FF13C08091E80082FF06C04E
:1011D0008091E8008B778093E80004C0809122031F
:1011E0008111F2CF0895809122038823D9F3809151
:1011F000E80080FFF8CF8091E8008E77ECCF982F41
:101200009093E900242F762F50E0891731F07091E8
:10121000EC002091ED005091F00021FD07C09F5F90
:10122000973071F78093E90081E008953091EB00E9
:101230003E7F3093EB003091ED003D7F3093ED0029
:101240003091EB0031603093EB007093EC00209311
:10125000ED005093F0002091EE0027FDE0CF80E0FC
:101260000895CF92DF92EF92FF920F931F93CF9347
:10127000DF93C8EDD0E088818F7E8883E7EDF0E0D2
:1012800080818160808384E082BF81E08093F50269
:1012900088818E7F888302EE10E0F8011082109220
:1012A000DA0081EEC82ED12CF601108288818F776A
:1012B000888388818068888388818F7D888319BC32
:1012C0001092220310922303109221031092200304
:1012D00090EEE92EF12CF70180818B7F808388814D
:1012E0008160888342E060E080E00E94FF08F601B0
:1012F00080818E7F8083F8018081816080838081FE
:1013000088608083F70180818E7F808388818061FF
:101310008883DF91CF911F910F91FF90EF90DF9025
:10132000CF900895FC0180912A0390912B0386179A
:101330009707A0F06115710529F49091E8009E7758
:101340009093E80090E06115710551F4911108C087
:101350008091E80082FF34C080E00895BC01F2CFA4
:10136000809122038823C1F18530C1F18091E8008A
:1013700083FD30C08091E80082FDEACF8091E800D3
:1013800080FFE1CF8091F3002091F200382F6115AA
:10139000710519F02830310558F091E028303105F9
:1013A00009F090E02091E8002E772093E800CBCF61
:1013B00081918093F100615071092F5F3F4FE7CF1A
:1013C00080912203882341F0853041F08091E8002C
:1013D00083FFBECF81E0089582E0089583E0089501
:1013E000089508958091FF02089587E797E7909305
:1013F00001088093000888E19AE00FB6F894A89558
:10140000809360000FBE90936000FFCF9C014FB7A8
:10141000F8948091BC029091BD02A091BE02B0915F
:10142000BF024FBF821B930B08952FB7F894809192
:10143000BC029091BD02A091BE02B091BF022FBF2D
:101440000895829590E09C01220F331F220F331FD5
:101450002C7C95958795959587958373282B30E0FF
:10146000C901880F991F8A7A359527952575822B92
:1014700008958091B70281111092B70208952FE06C
:10148000929F800D1124982F97708695869586954A
:1014900025E0829FF0011124EF57FD4F50E040E01E
:1014A00080E0219130E0092E02C0369527950A94FC
:1014B000E2F721703327042E01C0220F0A94EAF7C5
:1014C000822B4F5F5F4F4530510559F708952FE04C
:1014D000929F800D1124982F977041E001C0440F16
:1014E0009A95EAF786958695869595E0899FF0010D
:1014F0001124EF57FD4F90E080E070E05191DF0143
:1015000011979B01082E02C0369527950A94E2F7A1
:10151000217021952527242325272C93019685309A
:10152000910561F708958091800290914F02981380
:1015300001C008958F5F8770FACF209146023091E5
:1015400047022817390771F09093470280934602AB
:10155000E091D302F091D402309721F00084F1851C
:10156000E02D0994089520914402309145022817F6
:10157000390771F09093450280934402E091D302C1
:10158000F091D402309721F00680F781E02D099484
:101590000895E091D302F091D402309721F00190A8
:1015A000F081E02D099480E00895FA01811101C0D5
:1015B000FB0109948091F702982F9E7F29F4817096
:1015C00082608093F70208958635E8F38170846520
:1015D000F8CFAF92BF92DF92EF92FF920F931F93DB
:1015E000CF93DF93082F162FE901E42FF0E0E558A1
:1015F000FE4F611110C0E4915E2F4E2F4983E883A6
:101600005A83DF91CF911F910F91FF90EF90DF9060
:10161000BF90AF900895E62EF12C4491D42EE42F84
:10162000F0E026E0829FC00111242FEF30E0B901E5
:101630000E944D2B802F90E0880F991F55E5569FF3
:10164000D001579FB00D11248A1B9B0B982F990F27
:10165000890F5901AE18BF08AE9ED001AF9EB00DE4
:10166000BE9EB00D11245B2F189F80011124012F05
:1016700011275901A01AB10AAE9E8001AF9E100D2C
:10168000BE9E100D11245901A81AB108AE9CC001CC
:10169000AF9C900DBE9C900D1124892F9927281B7B
:1016A000390B2E9FC0012F9F900D3E9F900D11244E
:1016B000E92F62307105A1F050F46115710509F44C
:1016C0009DCF6130710581F0EB2F512F97CF6430A2
:1016D000710569F080F06630710509F48FCFF4CFA1
:1016E000E42F4B2F592F8ACFE42F412F87CFEB2F99
:1016F000542F492F83CF4B2F5D2DE12F7FCFF894AF
:10170000E82FE295EF70F0E031A1282F2F7081E0F3
:1017100090E001C0880F2A95EAF7982F90959323BF
:1017200091A392A1892B82A3789408959091D002DD
:1017300092FF06C0282F28712830F9F4877F846033
:1017400093FF06C0282F28712831F1F4877E846129
:101750002091D10220FF06C0382F38713830D9F4DB
:10176000877F816021FF06C0282F28712831D1F49E
:10177000877E816194FD877E0895282F247124300F
:10178000F9F68B7F8860DCCF282F2471243101F794
:101790008B7E8861DDCF382F3171313019F78E7F24
:1017A0008860E0CF282F2171213121F78E7E88615A
:1017B000E1CFCF93DF93972F70E02FE0929F600DE2
:1017C000711D1124FB013BE4839FE00DF11D1124E9
:1017D000EE0FFF1FE85DFA4FC591D491CE01C238DC
:1017E000D105B9F1E8F5C133D10509F499C050F537
:1017F000C932D10509F48DC0CA32D10509F497C0A8
:10180000C11542E5D40708F0B6C0C11521E5D207DD
:1018100008F024C1C83ED10508F09DC0C13ED105E5
:1018200068F5C83AD10508F089C0C53AD10508F075
:10183000EDC0C130D10511F1209709F443C02497C0
:10184000E8F440C0C533D10509F45CC0C933D10503
:10185000B9F62091D002237089F080EE90E00EC09E
:10186000C33ED10591F168F4C03ED105F9F0C23E06
:10187000D10531F62091D00222FD20C0DF91CF9119
:101880000895C63ED10561F1C73ED10581F1C43E40
:10189000D10509F0B5CF2091D10221FFEFCF809182
:1018A000D00284FD0FC087EE90E0E8CF2091D002F7
:1018B00020FD01C13091D10230FFE0CF83EE90E0F6
:1018C00024FFDCCF90E080E0D9CF2091D00222FD30
:1018D000F5C03091D10230FDC0CF24FFCFCFF2CF81
:1018E0002091D00223FFCACF24FDECCFDCCF209182
:1018F000D00223FDE6C03091D10231FFEECF84EE5D
:1019000090E0BCCF2091D00225FFB8CF89E290E0D3
:10191000B5CF2091D00225FFB1CF85E390E0AECFC7
:101920002091D00226FFAACF8AE290E0A7CF209193
:10193000D00226FFA3CF81E390E0A0CFCF3BD1051B
:1019400008F6C85AD0E0CC0FDD1FC55BDE4F88819A
:101950009981946493CFC11530E5D30708F062C034
:10196000C11540E4D40708F059C0DA95C115DF412C
:1019700008F484CFA7CFC11536E5D30718F5C115F4
:1019800045E5D40708F080C0C11584E5D80708F004
:1019900076C09C2F96959695AE0143705527C1153C
:1019A000D34508F460C021E030E002C0220F331FAD
:1019B0004A95E2F740E2949FC0011124822B932BB9
:1019C0009A685CCFC1153AE5D30778F4C11549E5AB
:1019D000D40708F063C0C11588E5D80708F472CFB2
:1019E0009C2F8827806F906A49CFCE019056811531
:1019F000904208F067CF8D2F8F710E94960B90E078
:101A0000982F882788279F718C2B46C0C55AD0E015
:101A1000C85BDE4F888190E0906430CFCE019F702C
:101A2000906A2CCF9E01E4E036952795EA95E1F780
:101A300023708C2F86958695837030E2839FC0013A
:101A40001124922BC37021E030E002C0220F331F1B
:101A5000CA95E2F7822B932B9C6810CF9C2F882786
:101A6000816F906A0BCF21E030E002C0220F331F5C
:101A70004A95E2F740E2949FC0011124EBCF9C2FDE
:101A80008827846F906AFACE8C2F0E94960B90E084
:101A9000982F882788279F719062F0CE8C2F8F70A7
:101AA0000E94960B34E0D695C7953A95E1F7CF7032
:101AB0009C2F9069E3CE89E390E0E0CE82EE90E047
:101AC000DDCE86EE90E0DACEBF92CF92DF92EF923B
:101AD000FF920F931F93CF93DF938C01C090CC02A2
:101AE000D090CD02E090CE02F090CF028091B8026B
:101AF0009091B902A091BA02B091BB02C82AD92A2A
:101B0000EA2AFB2ACFE1D0E0BC2ED701C6010C2E79
:101B100004C0B695A795979587950A94D2F780FD4E
:101B20000EC0219788F7B12C8B2DDF91CF911F919B
:101B30000F91FF90EF90DF90CF90BF900895B80184
:101B40008C2F0E94D90B019761F3EECFCF93DF93D7
:101B5000EC010E94640DBE01DF91CF910C94D90B72
:101B60000E94A60D292F2F7092959F7092509E3043
:101B700078F4E92FF0E0E056F34D0C94752B803F9C
:101B800019F020F4883E20F481E00895843FE1F3C9
:101B900080E00895883EC0F3813FD1F7F5CF822FD2
:101BA000869586958695089581FF02C0769A089558
:101BB000769808959FB7F8941092F3029FBF909182
:101BC0002203943009F048C02091E9002F70309131
:101BD000EC00932F917030FD90E8922B23E020933E
:101BE000E9002091EB0020FF34C02091EE0027FF98
:101BF00030C02091C102222321F02091E80025FF6E
:101C000028C01092C10226E03091E80035FF14C0D0
:101C10008093F1008091E80085FD27C08091E80065
:101C200080FFFCCF8091E8008E778093E8009F7062
:101C30009093E90080E0089530912203343049F414
:101C40003091EB0035FD05C0215041F481E08093D7
:101C5000C1029F709093E9008FEF0895EFE9FFE0D4
:101C60003197F1F700C00000CFCF8FB7F89421E093
:101C70002093F3028FBFDBCFCF93DF9300D00F927F
:101C8000CDB7DEB790912203943019F589837B8319
:101C90006A8382E08093E9008FEF9091E8008150A1
:101CA00095FD06C095ED9A95F1F700008111F5CFED
:101CB0008091E80085FF0DC050E040E063E070E0F7
:101CC000CE0101960E94B6088091E8008E7780933D
:101CD000E8000F900F900F90DF91CF910895BC0115
:101CE00084E00C943C0EBC0183E00C943C0ECF933A
:101CF000DF93EC0180911C018823B1F18091D00227
:101D000087FF32C060E282E08093E9008FEF90911C
:101D1000E800815095FD06C095ED9A95F1F7000019
:101D20008111F5CF8091E80085FF1BC080911C01D7
:101D300070E050E040E0811104C050E040E068E015
:101D400070E0CE010E94B6088091E8008E77809303
:101D5000E80080E2FE01A0E0B3E001900D928A95D8
:101D6000E1F7DF91CF91089568E081E0CDCF8091D8
:101D7000F70280FD0AC0E4ECF1E0118210821282C9
:101D8000339651E0E43FF507C1F7269A35B13F7B22
:101D900025B120644FB7F89484EC91E0FC01519197
:101DA000CF0168E025B9000000C057FF35B9550FD5
:101DB000000000C000C000C035B900C06A9591F7AE
:101DC000F1E0843F9F0751F74FBF8FE594E0019703
:101DD000F1F700C000000895EF92FF921F93CF9398
:101DE000DF93EC0184ECE82E81E0F82E10E08C818A
:101DF00097014091FA026091F902810F0E94E90A6D
:101E0000115F83E0E80EF11C103F89F70E94B70EC6
:101E10009A818C8190FF08C08F5F8C83DF91CF9176
:101E20001F91FF90EF9008958150F7CFCF92DF92EE
:101E3000EF92FF920F931F93CF93DF93FC01828168
:101E4000DD24DA9480FD02C0DD24D394C4ECD1E01B
:101E500010E000E0198218821A8294E0E92EF12C39
:101E6000C12C8091C1018C0D8131CCF18F70082E75
:101E7000000C990B8017910791F48091FA028E9DC6
:101E8000A0018F9D500D1124559547955595479567
:101E90009E016091F9028091F8020E94E90ACD0C3E
:101EA000F1E0EF1AF108E9F60F5F1F4F23960031BA
:101EB000110581F60E94B70E8091C10191E0D912FF
:101EC00014C0811110C08FE08093C101DF91CF91C8
:101ED0001F910F91FF90EF90DF90CF90089587FFB3
:101EE000C6CF805FC4CF8150EFCF90E001968F7056
:101EF0009927EACF0F931F93CF93DF93C4ECD1E0E0
:101F0000FE01118210821282339681E0E43FF807CD
:101F1000C1F710E000E08091C201082E000C990B7F
:101F2000081719078CF180911001082E000C990BED
:101F3000801791074CF19E014091FA026091F902DD
:101F40008091F8020E94E90A0F5F1F4F239600312B
:101F5000110509F70E94B70E80910F019091C201FF
:101F6000980F9093C20120911001280F2093100127
:101F7000121614F49F301CF0819580930F01DF91AD
:101F8000CF911F910F910895198218821A82DCCF88
:101F90008F929F92AF92BF92CF92DF92EF92FF9279
:101FA0000F931F93CF93DF93EC014C81042F10E02C
:101FB0009801D8010E948F2C9B01AC010E945A2CE1
:101FC0004B015C01E0E2F0E0E01BF10BA5E5B0E0C5
:101FD000AC019B010E945A2C6B017C019F01DF0127
:101FE0000E947B2B9B01AC010E94652C9B01AC01E4
:101FF000280D391D4A1D5B1DC701B6010E946D2CBD
:10200000F22E822F90E039E23F15D8F143E0249F71
:102010009001112435952795122F109594ECC92E17
:1020200091E0D92E00E085E5E82EEF188E2D01FD18
:102030008F2D9601412F6091F9020E94E90A0F5FEE
:1020400053E0C50ED11C003189F70E94B70E9C8168
:1020500081E0992319F0903219F48FEF80931101E8
:1020600080911101890F8C83DF91CF911F910F9186
:10207000FF90EF90DF90CF90BF90AF909F908F90A8
:10208000089525E530E0A901481B590BCA019A01C2
:10209000220F331F280F391F37FFBCCF2F5F3F4F51
:1020A000B9CFEF92FF920F931F93CF93DF938C01E1
:1020B000C4ECD1E0F12CE12CF80194816091F9029B
:1020C0008091F802F8E0EF16F104FCF49923F9F09E
:1020D0009E014091FA020E94E90A2FEFE21AF20AE9
:1020E000239680E1E816F10439F70E94B70EF80153
:1020F000848190E00196817099278483DF91CF914C
:102100001F910F91FF90EF900895992309F39E017D
:1021100040E0E1CF9091F70290FF0CC0E4ECF1E0D9
:10212000818360834283339691E0E43FF907C1F7EE
:102130000C94B70E08950F931F93CF93DF9300D0A5
:102140000F92CDB7DEB78C018091C30181110AC017
:102150009E012F5F3F4F4FEF6FEF0E94E90A8A8188
:102160008093C301F8016481613069F08091C301FB
:1021700040E0662361F040E0623011F44091C30119
:1021800080E060E004C06091C30140E080E00E9414
:102190008A10F801848190E0019663E070E00E946B
:1021A000612B84830F900F900F90DF91CF911F913F
:1021B0000F910895CF93DF9300D00F92CDB7DEB784
:1021C0009091F70290FF0AC09E012F5F3F4F0E943F
:1021D000E90A4B8169818A810E948A100F900F90D1
:1021E0000F90DF91CF910895CF93DF93EC01EC81B5
:1021F000F0E0E15AFC4F4491E7EFF2E06281818127
:102200000E94DA108C818F5F8C83DF91CF910895CB
:10221000CF93DF93EC01E7EFF2E0438162818C81A1
:102220000E94DA108C818F5F8C83DF91CF910895AB
:10223000AF92BF92DF92EF92FF920F931F93CF93D3
:10224000DF93C9E7D1E002EC12E0D12CEE24E39455
:10225000F12C8991F894E82FE295EF70F0E021A13C
:102260008F70A70102C0440F551F8A95E2F7CA017B
:10227000922F982B91A392A18095892382A3789481
:1022800050EA5A95F1F7EEE7F1E030E020E0B12CAA
:10229000A12C4191A42FA295AF70B0E090968C91A3
:1022A00090E04F7002C0959587954A95E2F780FDC2
:1022B00064C0C701022E02C0880F991F0A94E2F77A
:1022C000A82AB92A2F5F3F4F2F30310511F7FE01A1
:1022D000319780810E947F0BF80180819181A8163F
:1022E000B90609F44DC0B182A08281E0D82A0E5F00
:1022F0001F4FF1E0CE37DF0709F0ABCFDD2009F447
:1023000041C081E08093C0010E94150A9093BF01F3
:102310008093BE018091BE019091BF010E94060A88
:102320000697A0F18091C2029091C3029093D702C8
:102330008093D6028091C4029091C5029093D902F5
:102340008093D8028091C6029091C7029093DB02DD
:102350008093DA028091C8029091C9029093DD02C5
:102360008093DC028091CA029091CB029093DF02AD
:102370008093DE021092C00109C090E080E0A0CFFF
:1023800080E0B4CF8091C0018111C4CF8D2DDF9149
:10239000CF911F910F91FF90EF90DF90BF90AF9082
:1023A0000895EF92FF920F931F93CF93DF93809145
:1023B000B6029091B502892B9091B402892B80933B
:1023C0009E019091B7029923B1F0892B80939E01D1
:1023D00080911C01882309F45DC08091D00287FFA1
:1023E00059C08EE1E0EAF1E090E0815008F054C07D
:1023F00091110E94390AE091D302F091D4023097F2
:1024000009F450C080911C01882359F08091D002BA
:1024100087FF07C080919E0180939F0185E0809394
:102420009E010280F381E02D8EE991E00995809173
:10243000F60282FF37C080FF04C08EE996E00E945A
:10244000C407CEE9D1E086EAE82E81E0F82E08E95B
:1024500016E08091F60280FF0BC088811F928F9357
:102460001F930F930E945D080F900F900F900F9095
:102470002196EC16FD0669F78091F60280FF12C0E6
:1024800086E996E0DF91CF911F910F91FF90EF9039
:102490000C94C40786E0A6CF2191222309F4A5CF8E
:1024A0009F5FA3CFDF91CF911F910F91FF90EF908E
:1024B00008951092B5021092B4020E94D11190E0DA
:1024C00080E00E94B30A90E080E00C949D0A609343
:1024D000CC027093CD028093CE029093CF020C94E5
:1024E00059120F931F9341E050E060E070E004C088
:1024F000440F551F661F771F8A95D2F7CB01BA018B
:1025000060957095809590950091CC021091CD02C8
:102510002091CE023091CF02602371238223932336
:102520001F910F910C9467129091B30280958923AB
:102530008093B302282F277071F4282F082E000CE7
:10254000330B9217130639F08595859585950E9472
:1025500071121092B30208950F931F9341E050E05F
:1025600060E070E004C0440F551F661F771F8A9516
:10257000D2F78091CC029091CD02A091CE02B09181
:10258000CF028A019B01082B192B2A2B3B2BC90157
:10259000B8011F910F910C9467126093B802709369
:1025A000B9028093BA029093BB020C94591288230B
:1025B00041F080959091B60289238093B6020C94E5
:1025C000D1110895882339F09091B602982B9093F9
:1025D000B6020C94D111089590911C01992359F1E0
:1025E0009091D00297FF27C0E82FE695E695E695F3
:1025F000EE3180F4F0E0E256FE4F282F277081E0A4
:1026000090E001C0880F2A95EAF78095928189238E
:10261000828308959091F60290FF19C01F928F93C4
:1026200088E796E09F938F930E945D080F900F902C
:102630000F900F900895E0EAF1E09191891303C0A3
:10264000DF0111971C9291E0E63AF907B1F708957E
:1026500090911C01992349F19091D00297FF25C0D8
:10266000E82FE695E695E695EE3170F4F0E0E25657
:10267000FE4F877021E030E001C0220F8A95EAF713
:102680008281822B828308959091F60290FF1EC072
:102690001F928F938AE596E09F938F930E945D0827
:1026A0000F900F900F900F900895A0EAB1E0EFEF18
:1026B00090E02D91821751F0EF3F19F4211101C0E4
:1026C000E92F9F5F9630A9F7EF3F09F408950E2E8A
:1026D000000CFF0BE256FE4FD5CF882309F452C001
:1026E000823871F40E94C90A81FF4CC089E30E94BC
:1026F00028130E94D11189E30E94EC120C94D1118D
:10270000833859F40E94C90A80FF3CC083E50E94C7
:1027100028130E94D11183E5EFCF843859F40E9429
:10272000C90A82FF2FC087E40E9428130E94D1119A
:1027300087E4E2CF9CEF980F913AF0F290E2980F85
:10274000983088F4877021E030E0A90102C0440F7E
:10275000551F8A95E2F7CA0180959091B6028923A8
:102760008093B602CBCF9BE5980F933020F490E096
:1027700080E00C94B30A885A873120F490E080E01E
:102780000C949D0A08951092E7028091F60280FF52
:1027900008C086E493E09F938F930E945D080F909A
:1027A0000F9008958F929F92AF92BF92CF92DF9237
:1027B000EF92FF920F931F93CF93DF93FC01B280B0
:1027C000948081E08483C4EFD1E004EC11E08BE4D9
:1027D000A82E88248394EE24EA94F12C2BE4C22EB4
:1027E000D12C91101DC01B821A8298014A816981E7
:1027F00088810E94E90A25960D5F1F4F82E0C4344C
:10280000D80779F7DF91CF911F910F91FF90EF904B
:10281000DF90CF90BF90AF909F908F900C94B70EA9
:102820002B81222309F121502B833C818A2D821B8D
:10283000311101C0822F9091FA02899FC0011124A9
:10284000B6010E944D2B6A83211104C0332311F07D
:102850001C82AB8222E02B1540F28091F802888323
:102860008091F9028983C1CF0E94D62B823091409A
:102870000CF0BBCF82E08B15C0F40E94D62BB701C1
:102880000E94612B888322E02B1590F40E94D62BA6
:102890002091F9022695622F70E00E94612B280F8B
:1028A00029831A82AB828C82A0CF8091F802EACF72
:1028B0002091F902F5CFCF9384E090E00E94F32BB2
:1028C000C82F81E290E00E94F32B982F8C2FCF919C
:1028D0000895CF92DF92EF92FF926B017C010E94EC
:1028E000DA0AB701A60188E090E0FF90EF90DF9050
:1028F000CF900C94192C2F923F924F925F926F922F
:102900007F928F929F92AF92BF92CF92DF92EF927F
:10291000FF920F931F93CF93DF9300D000D0CDB7DA
:10292000DEB7182F462E542E222E9091F70290FFDC
:1029300046C0E92FE695AE2FB0E0A35EBE4F8C9166
:102940008093E6029E7F923009F050C09E012F5F77
:102950003F4F812F0E94E90A4B8169818A810E9441
:102960008A101093F8024092F9025092FA02222043
:1029700009F49DC06091F7027091F8028091F9020C
:102980009091FA020E9469148091F60280FF17C0AC
:102990008091FA021F928F938091F9021F928F9378
:1029A0008091F8021F928F938CED92E09F938F930A
:1029B0000E945D080FB6F894DEBF0FBECDBF0F902A
:1029C0000F900F900F90DF91CF911F910F91FF907B
:1029D000EF90DF90CF90BF90AF909F908F907F90BF
:1029E0006F905F904F903F902F900895823019F430
:1029F0005090FA02B6CF863019F41091F802B1CF98
:102A00008930D9F3893109F0ACCFE9512E2F2170EB
:102A10002C838E2F80958170382EE695F0E0E85D4E
:102A2000FC4FC590D490DD2434ECA32E31E0B32EBE
:102A3000912C812CF12CE12C41E0642E43E0742E8A
:102A4000C40124E0969587952A95E1F72C81012F02
:102A500021112BC0080F8091F60280FF11C0DF9278
:102A6000CF921F923F921F920F93FF92EF927F920D
:102A70006F920E945D080FB6F894DEBF0FBECDBF07
:102A80009501452D642D802F0E94E90A9FEFE91AD8
:102A9000F90A8C0C9D1C23E0A20EB11C80E1E81603
:102AA000F10471F60E94B70E5CCF081BD4CF809161
:102AB000F60280FF84CF1F925F921F924F921F9267
:102AC0001F9385EB92E072CFE7EFF2E0438128E0BD
:102AD000421B08F440E021E0628181810C947B1468
:102AE000E7EFF2E0438128E0420F08F44FEF21E0E6
:102AF000628181810C947B14E7EFF2E0628128E02F
:102B0000621B08F460E021E0438181810C947B1416
:102B1000E7EFF2E0628128E0620F08F46FEF21E056
:102B2000438181810C947B14E7EFF2E0818121E005
:102B30004381628188500C947B14E7EFF2E081813D
:102B400021E043816281885F0C947B148091FB02B9
:102B5000882319F081508093FB026091F7027091F5
:102B6000F8028091F9029091FA020C946914809114
:102B7000FB02833018F48F5F8093FB026091F702B1
:102B80007091F8028091F9029091FA020C94691404
:102B9000E7EFF2E083E0808311828FEF828383830B
:102BA000148260817181828193810C9469146CEE2E
:102BB0007EEF90E080E00E94252C60E082E090E0D3
:102BC0000E94072C60E083E090E00E94072C1092A6
:102BD000B8021092B9021092BA021092BB0260E0E1
:102BE00084E090E00E94072C60E081E290E00E9487
:102BF000072C60E085E090E00E94072C60E086E012
:102C000090E00E94072C6FEF87E090E00E94072C75
:102C100040E050E0BA0188E090E00E94192C60E0AA
:102C20008DE090E00E94072C40E050E0BA0188E17E
:102C300090E00E94192C60E087E190E00E94072C50
:102C400040E050E0BA018CE190E00E94192C60E075
:102C500080E290E00E94072C40E050E0BA0188E159
:102C600090E00E94192C40E050E0BA018FE090E023
:102C70000E94192C40E050E0BA0183E190E00C94EE
:102C8000192C1092B60280911C01E0EAF1E0882331
:102C900059F08091D00287FF07C08EE1DF011D92BD
:102CA0008A95E9F70C94591286E0F8CF1F93CF93D9
:102CB000DF93CDB7DEB7AA970FB6F894DEBF0FBE8D
:102CC000CDBF84E293E02091F100DC012D93CD0192
:102CD000B3E08C329B07B9F780912503833009F468
:102CE0006FC0B8F4813009F446C0823009F4B0C036
:102CF0008091E80083FF38C18091240390912503DF
:102D00009A3008F031C1E92FF0E0E255F34D0C9410
:102D1000752B8A3009F48BC08B3009F46EC0893072
:102D200039F780912403813219F78091280390911B
:102D300029030297E8F68091E800877F8093E800F6
:102D40008091E80082FF37C09091F3008091F200FB
:102D5000029729F48091F1008B7F813021F48091DA
:102D6000F1008093FF028091E8008B778093E80068
:102D70000E94E008BDCF80912403813A09F0B8CFCA
:102D80008091E800877F8093E800809128039091EC
:102D90002903892B61F460E280E093E070E00E94F7
:102DA00092098091E8008B778093E800A1CF60E0E2
:102DB00090E080E0F3CF809122038111C1CF98CFC2
:102DC00080912403813A09F093CF80912803909158
:102DD0002903892B09F08CCF8091E800877F8093AD
:102DE000E8008091E80080FFFCCF80911C01809377
:102DF000F1008091E8008E77B9CF80912403813271
:102E000009F076CF8091280390912903892B09F04E
:102E10006FCF8091E800877F8093E8000E94E008F0
:102E20008091260380931C010E94411661CF8091FE
:102E30002403813209F05CCF8091E800877F809382
:102E4000E8000E94E008809127038093FE0250CFA3
:102E500080912403813A09F04BCF8091E800877F6D
:102E60008093E8008091E80080FFFCCF8091FE0213
:102E7000BECF803899F0823809F076C0809128035F
:102E80008F70873008F070C08093E9008091EB006C
:102E900085FB882780F91092E90006C08091200305
:102EA00090912103911182609091E800977F909317
:102EB000E8008093F1001092F1008091E8008E7795
:102EC000B0C1882309F49DC1823009F04DC08091C2
:102ED00026038111A1C1809128038F702FEF280F45
:102EE000263008F041C08093E9002091EB0020FFDC
:102EF00093C1933031F48091EB0080628093EB00BA
:102F00008BC19091EB0090619093EB0021E030E059
:102F100001C0220F8A95EAF72093EA001092EA0096
:102F20008091EB008860EACF81111EC010912603CA
:102F30001F778091E3008078812B8093E30080915C
:102F4000E800877F8093E8000E94E0088091E80015
:102F500080FFFCCF8091E30080688093E30082E0F3
:102F6000111183E0809322038091E80083FF0AC05F
:102F70008091E800877F8093E8008091EB00806279
:102F80008093EB00AA960FB6F894DEBF0FBECDBFBC
:102F9000DF91CF911F9108958058823028F72091BA
:102FA0002603309127032C3DE3E03E07A1F583E0A3
:102FB0008A838AE289834FB7F894DE01139620E072
:102FC0003EE051E2E32FF0E050935700E49120FF00
:102FD00003C0E295EF703F5FEF708E2F90E0EA3014
:102FE000C0F0C7968D939D932F5F243159F74FBF43
:102FF0008091E800877F8093E8006AE270E0CE016C
:1030000001960E9492098091E8008B778093E800F6
:10301000ABCFC096E7CF8091280390912903432F2F
:1030200055274330510509F44AC078F54130510520
:1030300009F47AC08BE590E0E0E4FEE0423051050F
:1030400009F092CF2091E800277F2093E80020919B
:103050002A0330912B038217930708F49C0140E068
:103060002115310509F065C0411163C08091E80068
:1030700082FDC9CF80912203882329F2853019F27D
:103080008091E80083FFF2CFBECF4132510509F4B1
:103090003CC04232510509F067CF8330910508F0FA
:1030A00063CFFC01EE0FFF1FE057FE4F0190F08150
:1030B000E02D83579E4FDC018C9190E01AC033279E
:1030C00021303105D1F02115310561F02230310573
:1030D00009F04ACFEDEAFEE0E4918E2F90E0EDEAB0
:1030E000FEE007C0E9EDFEE0E4918E2F90E0E9ED0F
:1030F000FEE0009709F438CFA5CFE7ECFEE0E491BD
:103100008E2F90E0E7ECFEE0F4CF8330910508F0DD
:103110002BCF880F991FFC01EA56FE4F0190F081DA
:10312000E02D89E090E08ECF82E190E0EBE9FEE0D7
:1031300089CF80912203882309F465CF853009F473
:1031400062CF8091E80083FD5ECF8091E80082FD30
:103150008DCF8091E80080FF83CF9091F300809124
:10316000F2002115310519F08830910550F041E049
:10317000089709F040E08091E8008E778093E8009E
:103180006FCF44914093F10031962150310901965F
:10319000E8CF803809F0E8CE8091E800877F8093FF
:1031A000E800809123038093F10087CE8111DCCE6B
:1031B00010912603123008F0D7CE8091E800877F67
:1031C0008093E800109323030E94E008112311F07C
:1031D00084E005C08091E30087FDFACF81E0809311
:1031E000220342E061EC81E00E94FF0842E261ECD0
:1031F00082E00E94FF0842E261EC83E00E94FF0847
:10320000B3CE80912603813009F0AECE81E09330B9
:1032100009F080E0809321031092E9008091E8009A
:10322000877F8093E8000E94E0089ECECF93C82F4E
:103230001F928F9380EF9BE09F938F930E945D0876
:1032400061E070E080E090E004C0660F771F881FA7
:10325000991FCA95D2F70E94CD120F900F900F9030
:103260000F90CF910C944116CF93DF93EBEFE80FC3
:10327000EF3308F057C2F0E0E854F34D0C94752B8F
:1032800085EE9BE00E94C40781E198E00E94C4079C
:1032900083E090E00E94F32B1F928F938EE098E0E2
:1032A0009F938F930E945D088CE098E00E94C40772
:1032B00082E090E00E94F32BC82F89EF97E00E94F4
:1032C000C4071F92CF9384EF97E09F938F930E9440
:1032D0005D0882EF97E00E94C40788EE97E00E94A5
:1032E000C4078C2F81701F928F9385EE97E09F9378
:1032F0008F930E945D0883EE97E00E94C40789EDDA
:1033000097E00E94C407C1FB882780F91F928F9322
:1033100086ED97E09F938F930E945D0884ED97E080
:103320000E94C40788EC97E00E94C407C2FB88276C
:1033300080F91F928F9385EC97E09F938F930E9463
:103340005D0883EC97E00E94C4078AEB97E00E9437
:10335000C407C3FBCC27C0F91F92CF9387EB97E03C
:103360009F938F930E945D0885EB97E00E94C407AE
:103370000E945B14EC0181EA97E00E94C407DF938E
:10338000CF938CE997E09F938F930E945D088AE921
:1033900097E00E94C40781E897E00E94C4078C2F41
:1033A00081701F928F938EE797E09F938F930E9477
:1033B0005D088DB79EB780960FB6F8949EBF0FBE7E
:1033C0008DBF8CE797E00E94C40785E697E00E94D6
:1033D000C407C1FB882780F91F928F9382E697E08C
:1033E0009F938F930E945D0880E697E00E94C40738
:1033F0008EE497E00E94C4078D2F81701F928F93F7
:103400008BE497E09F938F930E945D0889E497E097
:103410000E94C40787E397E00E94C407D695D17045
:103420001F92DF9384E397E09F938F930E945D0840
:1034300082E397E00E94C40780E297E00E94C407FD
:10344000C2FB882780F91F928F938DE197E09F93AD
:103450008F930E945D088BE197E00E94C40789E08A
:1034600097E00E94C407C3FB882780F91F928F93BF
:1034700086E097E09F938F930E945D0884E097E039
:103480000E94C4078AEF96E00E94C407C4FB882705
:1034900080F91F928F9387EF96E09F938F930E94FE
:1034A0005D0885EF96E00E94C40783EE96E00E94D7
:1034B000C407C5FB882780F91F928F9380EE96E0A2
:1034C0009F938F930E945D088EED96E00E94C40743
:1034D00082EC96E00E94C407C6FB882780F91F9201
:1034E0008F938FEB96E09F938F930E945D088DB72B
:1034F0009EB780960FB6F8949EBF0FBE8DBF8DEB22
:1035000096E00E94C40785EB96E00E94C407C7FBC3
:10351000CC27C0F91F92CF9382EB96E09F938F93B5
:103520000E945D0880EB96E00E94C4070F900F9008
:103530000F900F9081E01CC084ED9BE00E94C407B7
:103540000E94D715F7CF81E298E00E94C407F2CF1E
:103550008091F602807F8093F60283ED99E00E94CD
:10356000C40780ED9BE00E94C40781E08093C00205
:10357000DF91CF91089584EB9BE00E94C4070E94E5
:1035800041169FEF24E38CE0915020408040E1F70A
:1035900000C000000E94F5099091F602892F8E7FED
:1035A00090FF81608093F60280FF03C088EA9BE071
:1035B000CCCF8BE99BE00E94C4078091F602817F0B
:1035C0008093F602B7CF9091F602892F8D7F91FFFD
:1035D00082608093F60281FF08C08EE89BE00E9423
:1035E000C4078091F6028160EBCF80E89BE0ADCF0D
:1035F0009091F602892F8B7F92FF84608093F60270
:1036000082FF03C081E79BE0EACF81E69BE09DCF8C
:103610009091F602892F877F93FF88608093F6024E
:1036200083FF03C085E59BE0DACF88E49BE08DCF84
:1036300081EA9AE00E94C40786E69AE00E94C407E5
:103640008FE49AE00E94C40789E19AE00E94C407CF
:103650008EEE99E07ACF83E29BE00E94C4070E943D
:10366000C90A1F928F9389E09BE09F938F930E94DA
:103670005D0880911C011F928F9382EF9AE09F93C7
:103680008F930E945D088091FE021F928F938FEDB1
:103690009AE09F938F930E945D088091D00287FBF0
:1036A000882780F91F928F9387EC9AE09F938F93DE
:1036B0000E945D082FB7F8948091BC029091BD02E2
:1036C000A091BE02B091BF022FBFBF93AF939F9353
:1036D0008F9380EB9AE09F938F930E945D088DB744
:1036E0009EB746960FB6F8949EBF0FBE8DBF22CFF1
:1036F0000E9441169091D002892F97FB87F980583C
:103700008093D00287FF03C08EE39BE01ECF83E34C
:103710009BE01BCF80E00E9416190CCF8953FBCF92
:103720008D51F9CF81E39BE00E94C40780E020CF58
:10373000CF93C82F882309F481C08238C1F40E9436
:10374000C90A81FD7BC089E30E9428130E94D11120
:103750002FEF81EE94E0215080409040E1F700C0CF
:10376000000089E30E94EC12CF910C94D1118338B0
:10377000A1F40E94C90A80FD61C083E50E9428135C
:103780000E94D1112FEF81EE94E0215080409040B3
:10379000E1F700C0000083E5E5CF8438A1F40E9482
:1037A000C90A82FD4BC087E40E9428130E94D111F0
:1037B0002FEF81EE94E0215080409040E1F700C06F
:1037C000000087E4CFCF8CEF8C0F813A08F067C000
:1037D0008091C002882349F1813091F11092C0029A
:1037E00080911C01882309F44CC08091D00287FF8E
:1037F00048C0EC2FE695E695E695F0E0E256FE4FE0
:10380000828190E04C2F477021E030E002C0220F0F
:10381000331F4A95E2F782239323892BE1F18C2F02
:103820000E94EC120E94D11136C08091B602823201
:10383000B9F68C2F0E943419882391F2CF91089504
:103840008091B6028232A9F3C431B9F038F4CB309A
:1038500049F084E596E00E94C40711C0C93269F0BE
:10386000C833B9F783ED99E00E94C40786E596E076
:103870000E94C40781E08170DFCF1092C00280E017
:10388000FACFE0EAF1E086EA91E02191C21739F23D
:103890008E179F07D1F78C2F0E94281365CF80E2E7
:1038A0008C0F883068F4C77021E030E001C0220F2F
:1038B000CA95EAF78091B602822B8093B60254CF64
:1038C000EBE5EC0FE33040F4F0E0E85BFE4F808185
:1038D00090E0CF910C94B30AC85AC73108F0AECF2C
:1038E000EC2FF0E0EE0FFF1FE55BFE4F8081918132
:1038F000CF910C949D0A0F931F93CF93DF93C62F04
:10390000D42F022FFC0182818823A1F060932E0323
:103910000E94150A90932D0380932C03C77081E0B9
:1039200001C0880FCA95EAF7DF91CF911F910F91DF
:103930000C94E21280912E03681338C080912C03FE
:1039400090912D030E94060A883C910578F510E2BB
:103950001D0FCD17B9F080E28C0F883040F4C7708E
:1039600081E001C0880FCA95EAF70E94D71218308B
:1039700048F481E09D2F977001C0880F9A95EAF76F
:103980000E94E212802F0E94981B802F0E946D13CC
:10399000183098F4D77081E001C0880FDA95EAF703
:1039A000DF91CF911F910F910C94D712C77081E0D6
:1039B00001C0880FCA95EAF7F3CFDF91CF911F912D
:1039C0000F9108956091F702669570E04BE050E02A
:1039D00084E091E00E94E62B892B19F481E080932A
:1039E000E7020E94150A9093E1028093E002809121
:1039F000F60280FF08C08DE293E09F938F930E94B0
:103A00005D080F900F9008959091F70290FF55C0B8
:103A1000917081113CC092609093F7026623F1F19E
:103A20006091F7027091F8028091F9029091FA0288
:103A30000E9469148091F60280FF0FC08091F70206
:103A400086951F928F9389E992E09F938F930E94AE
:103A50005D080F900F900F900F906091F7026695A0
:103A600070E04BE050E084E091E00E94E62B892B6F
:103A700009F10E94C31381E08093E30220E04091AA
:103A8000FA026091F9028091F8020C947B148B3257
:103A900010F09465C1CF880F982BBECF8091F602AD
:103AA00080FFDBCF8091F70286951F928F938BE783
:103AB00092E0CBCF0E94E21CDECF08958091F70206
:103AC0008695815009F48AE261E00C94041D80918E
:103AD000F70286958F5F8B3208F081E061E00C94ED
:103AE000041D9091F70290FF07C09695981720F05B
:103AF000961710F40C94671D61E00C94041D4F920E
:103B00005F926F927F928F929F92AF92BF92CF926D
:103B1000DF92EF92FF920F931F93CF93DF9300D02A
:103B200000D00F92CDB7DEB77C01FC018381948178
:103B3000892B39F01081D180812F8D218F3F09F0A1
:103B400049C50F900F900F900F900F90DF91CF917C
:103B50001F910F91FF90EF90DF90CF90BF90AF90AB
:103B60009F908F907F906F905F904F9008950E94EC
:103B7000640D082F682F89819A810E94670AE12FBE
:103B8000F0E02FE0D29EE00DF11D11243BE4039FF5
:103B9000E00DF11D1124EE0FFF1FE85DFA4F0591B6
:103BA0001491043F8CE5180709F493C0B0F5093D62
:103BB000ECE51E0709F489C00A3DFCE51F0709F47E
:103BC00094C0083D2CE51207B1F526E241EE61EE06
:103BD000C7010E947B1C8091B302877009F4B1CFAA
:103BE000F7018281882309F4ACCF82E00F900F9017
:103BF0000F900F900F90DF91CF911F910F91FF9039
:103C0000EF90DF90CF90BF90AF909F908F907F907C
:103C10006F905F904F900C949412063F3CE5130711
:103C200009F45FC008F459C027E245EE66EE073F8D
:103C30009CE5190769F2F7019281992309F4DBC425
:103C400010922E030230FCE51F0708F42FC1063145
:103C50002CE5120738F098012B5F3C4529303105DF
:103C600008F024C10E945B149093D1028093D0028B
:103C700000313CE5130709F4E8C008F076C00830CD
:103C80009CE5190709F4D7C008F045C00430FCE5ED
:103C90001F0709F4C8C060F502303CE5130709F4BA
:103CA000B8C003301C4509F4BAC06091D00210912D
:103CB000D10284E090E00E94072C612F81E290E025
:103CC0000E94072C0E94411686CF27E245EE65EE42
:103CD0007FCF26E241EE60EE7BCF27E245EE64EE39
:103CE00077CF26E241EE62EE73CF28E241E0EFCFDC
:103CF0008091D002806106309CE5190709F48CC0E0
:103D00008091D002886007301C4508F485C08091FE
:103D1000D002806281C08091D0028D7F0C30FCE5A2
:103D20001F0709F479C070F48091D0028C600A30CA
:103D30003CE5130709F470C008F481C08091D002FB
:103D40008E7F6AC08091D002877F0E309CE5190774
:103D500009F462C08091D0028B7F0F301C4508F4BB
:103D60005BC08091D0028F7E57C00C3FFCE51F07DF
:103D700009F45DC030F503313CE5130709F46DC06B
:103D800078F401319CE5190709F463C002311C4540
:103D900009F08BCF0E9441168091D0028F773CC0F2
:103DA0000531FCE51F0709F460C008F474C0809178
:103DB000D10281600B3F1C4509F077CF8093D1027F
:103DC00074CF01158DE5180709F44BC088F4809174
:103DD000D1028D7F0E3FECE51E0781F38091D10269
:103DE0008E7F0F3F1C4550F38091D1028360E6CF58
:103DF00002302DE5120709F457C008F442C060E014
:103E000003301D4509F051CF8EE090E00E94072C51
:103E10004CCF8091D00281608093D00246CF8091B8
:103E2000D0028260F9CF8091D0028460F5CF80917A
:103E3000D1028260C3CF8091D0028064EDCF0E9416
:103E400041168091D0028068E7CF8091D0028F7DAB
:103E5000E3CF8091D0028F7BDFCF8091D002837F30
:103E6000DBCF8091D1028C7FA9CF8091D00282FBE1
:103E7000992790F921E0922790FB82F990FB83F932
:103E8000CBCF8091D102982F909591708E7F892B06
:103E900090FB81F993CF0E9441169091D002892F17
:103EA00097FB87F98058B8CF61E0AECF8091B6021A
:103EB0000631ECE51E0709F0AAC38A7A91E009F4FD
:103EC00090E090934802811106C089E20E94281375
:103ED0000E94D11180CE85E3F9CF85E395C380910F
:103EE000F60280FF10C08091F702809581701F92CA
:103EF0008F938EEC94E09F938F930E945D080F90B8
:103F00000F900F900F908091F70280FF2EC08E7F50
:103F10008093F7026091F7027091F8028091F902A4
:103F20009091FA020E9469148091F60280FF0FC0FE
:103F30008091F70281701F928F938FE594E09F9399
:103F40008F930E945D080F900F900F900F900E942A
:103F5000C313FFEF20E732E0F15020403040E1F79B
:103F600000C000000E94B70E36CE81608093F70239
:103F70008091F60280FF0DC01F9281E08F9387E948
:103F800094E09F938F930E945D080F900F900F9085
:103F90000F908091F70261E086950E94041D1BCE70
:103FA0004EE55DE167E67DE10E94D50A14CE47E665
:103FB0005DE16EE57DE1F8CF44E955E16DE975E13C
:103FC000F3CF4DE955E164E975E1EECF4CE755E1FA
:103FD00068E875E1E9CF48E855E16CE775E1E4CFC1
:103FE00044E655E160E775E1DFCF40E755E164E67F
:103FF00075E1DACF46EA55E167EB75E1D5CF47EBDE
:1040000055E166EA75E1D0CF61E081E0C6CF65E0B9
:1040100082E00E94711DDFCD68E086E0FACF6EE09D
:1040200089E0F7CF64E18FE0F4CF67E185E1F1CF7C
:1040300061E088E1B2CF62E289E1EBCF61E083E247
:10404000ACCF01308CE51807A1F00F3DECE51E0761
:1040500011F101151C4511F50E9441162FEF34E3B3
:104060008CE0215030408040E1F700C000000E9409
:10407000F5099091F602892F8E7F90FF81608093E1
:10408000F60280FF05C087E195E00E94C407A3CD3A
:1040900085E095E0FACF0E94D7159DCDF70100810C
:1040A0001181992309F43DC0C8010E94640DD82EE6
:1040B000682FC8010E94670AB8018D2D0E94D90B94
:1040C0008C01882EF701A580A2944FE0A422D28013
:1040D000D1101092B5028091B302877099F0DD2063
:1040E00089F0812F807F803421F080E2800F88303A
:1040F00048F082E00E9494128091B3028770CC2431
:10410000C3948111C12CB12EB2943FE0B322FBE0E5
:10411000FB1508F440C0EB2DF0E0E950F34D0C9492
:10412000752BC8010E943F0AD82EC6CF212F2F70B1
:10413000A22E107F19F0A29420EFA222DD20C9F058
:10414000AA2069F080E2800F883010F081100BC047
:104150008091B602A82AA092B6020E94D111802FA7
:104160000E94981B18C08091B502A82AA092B5029F
:10417000F4CF802F0E946D13AA2069F0A094005EF6
:10418000083010F0811047C08091B602A822A0929A
:10419000B6020E94D111EB2DE850FF0B349720F4AA
:1041A0000E94C90A0E94D40DCC20A9F08091B302CC
:1041B00080FD11C0F70112828595859585950E9435
:1041C000AC12C7010E947F1D8091B3028595859531
:1041D00085950E94711285E0F701DE01119601902C
:1041E0000D928A95E1F789819A810E943F0A9A810E
:1041F000E981F0E02FE0929FE00DF11D11243BE4F6
:10420000839FE00DF11D1124EE0FFF1FE85DFA4FB3
:104210008591949196CC8091B502A822A092B50286
:10422000B8CF312F3F70932E107F103219F0929437
:1042300090EF9922882071F081E0881661F1DD20ED
:10424000B9F1AA2071F1F701858180FF88CF8F70C5
:10425000858327C0DD2091F09091B702892D892BAD
:10426000A11003C00E94E21296CFE1E0AE12FACF95
:10427000981709F490CF8093B7028DCFA11006C094
:104280000E94390A892D0E94D71285CFF1E0AF161E
:1042900009F481CFF5CFDD2031F025E02A1508F4AF
:1042A0007ACF892DDFCF34E03A1508F474CFEACF06
:1042B000AA2041F3F9E38F1286C12FEF37EE83E096
:1042C000215030408040E1F700C000007CC1812FC8
:1042D00086958695837061F0813009F05CCFC801C6
:1042E0009370D11002C090E080E00E949D0A53CFED
:1042F000C8019370D11002C090E080E00E94B30A20
:104300004ACF812F837009F066C0D11044CF802F2F
:10431000829586958770880F880F602F6F70462E64
:10432000512C712C612C082E04C0440C551C661CA9
:10433000771C0A94D2F740E050E0BA0104FF0FC0A6
:104340004FE050E060E070E004C0440F551F661F6E
:10435000771F8A95D2F74095509560957095812F7B
:10436000869586958370823019F1D8F40091B80251
:104370001091B9022091BA023091BB02813069F0EC
:104380004429552966297729CB01BA016023712375
:10439000822393230E94CD12FECE402A512A622A04
:1043A000732ACB01BA016429752986299729F2CF8E
:1043B00044295529662977290091B8021091B9023C
:1043C0002091BA023091BB02CB01BA01602771275C
:1043D00082279327DFCF8695DD2011F0812F817012
:1043E000882309F4D8CE802F829586958770880F10
:1043F000880F602F6F70462E512C712C612C082E67
:1044000004C0440C551C661C771C0A94D2F740E08B
:1044100050E0BA0104FF0FC04FE050E060E070E0F0
:1044200004C0440F551F661F771F8A95D2F7409529
:10443000509560957095812F869586958370823012
:1044400019F1D8F40091CC021091CD022091CE0246
:104450003091CF02813069F04429552966297729A6
:10446000CB01BA0160237123822393230E94671238
:1044700092CE402A512A622A732ACB01BA016429BA
:10448000752986299729F2CF442955296629772944
:104490000091CC021091CD022091CE023091CF023A
:1044A000CB01BA016027712782279327DFCF1F70C6
:1044B000DD2029F0812F0E94AC12802FD3CE802FD7
:1044C0000E94D712812F0E94711265CE802F92EF29
:1044D000891609F450C0981578F0E0EF8E1619F19E
:1044E000F1EF8F1609F43FC0DD2009F467C0A11079
:1044F00036CE812F8F713CC023EF821609F440C065
:1045000034EF8312F1CFDD2009F44DC01F71812FEC
:104510000E94AC12E8E01E9FC001112483608093CA
:10452000B302812F25C0DD20C9F084E08A1508F48C
:1045300032CE1F7161E070E080E090E004C0660F51
:10454000771F881F991F1A95D2F70091CC021091FE
:10455000CD022091CE023091CF02A4CF95E09A15E2
:1045600008F419CEE6CF812F8F71DD2009F4ABCF8F
:104570000E94AC1210CE812F8F71DD20C9F3A3CF22
:1045800060E070E0CB01DD2009F470CF1F7161E0C5
:1045900070E080E090E004C0660F771F881F991FCD
:1045A0001A95D2F763CF81E00E949412F1E0FA15D8
:1045B00008F0F1CD82E00E949412EDCDAA2039F0EE
:1045C000893309F47ACE802F0E946D13E4CD812FB8
:1045D0008F7179CF85E0DE01119601900D928A9559
:1045E000E1F7F701228189819A812111C0CA0E94D5
:1045F0003F0A082FC4CA06311C4509F04FCD8091EF
:10460000480281116ACC89E20E94EC1261CC82726C
:10461000F801E35CFC45E431F10508F012CDED5FF3
:10462000F24D0C94752B1F93CF93DF9380914E0224
:10463000807FA9F480914B02882389F080918002C9
:10464000D0914F026091490270914A02A0914C02B0
:10465000B0914D02C62FC72316E0D81304C0DF91D6
:10466000CF911F91089590E0109711F0CF3F19F46A
:1046700001968770F2CF189F9001199F300D112479
:10468000F901E05BFD4F41814713F2CF40814613B2
:10469000EFCF42814111ECCF438154814A1B5B0B28
:1046A000483C510528F780914E028F7080618093BD
:1046B0004E02F901EB5AFD4F80818F70806180833B
:1046C00089E492E00E947F1DDF91CF911F910C94AD
:1046D000930AAF92BF92CF92DF92EF92FF920F9325
:1046E0001F93CF93DF93CDB7DEB761970FB6F894E2
:1046F000DEBF0FBECDBF8C0185E0F801DE011D9647
:1047000001900D928A95E1F7F80180819181E28014
:1047100029E4A22E22E0B22E60914C0270914D024B
:104720006115710509F43EC13091490240914A0278
:10473000232F24232F3F09F435C1C380D480F09068
:104740004B02F601E61BF70BFF2009F4FBC020919A
:104750004E02522F507FE83CF10508F0BBC05111CA
:1047600078C0FE2C491321C038131FC0E1101DC0B2
:104770002F70206120934E02C5010E947F1D809101
:104780004E02F80185838F2D61960FB6F894DEBF37
:104790000FBECDBFDF91CF911F910F91FF90EF9092
:1047A000DF90CF90BF90AF900895CD2829F0282FAB
:1047B00029232F3F09F014C120E0F22FF170DF2EE2
:1047C00020FF3DC02091800240914F0256E024130B
:1047D00015C08D879E878D859E850E94A60D292FE9
:1047E00022952F702230F8F0243020F59F70F9F0D8
:1047F000F8019581907FD9F4D12C1FC030E0529FF1
:10480000F001539FF00D1124E05BFD4F6181961381
:1048100006C06081861303C06281E61210C02F5F5C
:104820003F4F2770D4CF9F7011F0882329F3805E0B
:10483000883010F3C8010E947F1DFD2CA4CFEE200C
:1048400009F4A1CF80914E02816080934E02F12C39
:104850009ACF491312C0381310C0E1100EC0F801EE
:104860002583C8010E947F1D86E0F801A9E4B2E01B
:1048700001900D928A95E1F786CF8D879E878D8571
:104880009E850E94B00D882309F1EE20F9F08091F9
:104890004E02803270F02091490230914A023887EE
:1048A0002F831986DB86CA868C87CE0107960E94E5
:1048B0007F1D86E0F801A9E4B2E001900D928A958F
:1048C000E1F70E941323FF24F3945DCFC8010E94F7
:1048D0007F1DF9CF51110AC089E492E00E947F1D2B
:1048E00086E0F50111928A95E9F7B1CF49130FC01F
:1048F00038130DC0E1100BC0F8012583C8010E94D8
:104900007F1D86E0F50111928A95E9F73CCF8D87EE
:104910009E878D859E850E94B00D8823B9F2EE207A
:10492000A9F280914E02803220F22091490230910A
:104930004A023A8329831B82DD82CC828E83CE0198
:104940000196B5CFE83CF105E0F6FE2CEE2009F427
:10495000BDCF491316C0381314C080914E0280FD9C
:1049600083CF982F907F09F47FCFF8018583903F04
:1049700009F477CF982F907F905F8F70892B858374
:1049800070CF8D879E878D859E850E94B00D811189
:1049900090CF80914E02816080934E02C8010E94A8
:1049A0007F1DF1CEEE2009F491CF8D879E878D85F6
:1049B0009E850E94B00DF82E882309F487CF86E0EB
:1049C000F801A9E4B2E001900D928A95E1F7809197
:1049D000490290914A020E94A60D0E941323D3CE51
:1049E00021E02E25EACE1F93CF93DF93CDB7DEB71C
:1049F00067970FB6F894DEBF0FBECDBF4B8B5C8BB5
:104A00006D8B7E8B8F8B1A8A198A85E0FE017396D7
:104A1000DE011D9601900D928A95E1F786E0FE0178
:104A20003D96DE01179601900D928A95E1F7CE0131
:104A300007960E946923882389F016E080918002FE
:104A400090914F02891349C067960FB6F894DEBF64
:104A50000FBECDBFDF91CF911F91089586E0FE017B
:104A60003796DE01119601900D928A95E1F78A85BD
:104A70009B85892B11F38F81988589238F3FE9F2DC
:104A800020914F0230E0C90101968770992740912B
:104A900080024817190671F40E94411610924F02C5
:104AA0001092800286E0E9E4F2E0DF011D928A952F
:104AB000E9F7C3CF96E0929FD001939FB00D1124E8
:104AC000A05BBD4FFE01319601900D929A95E1F7E2
:104AD00080934F020E94930AB0CF819FC00111249E
:104AE000805B9D4F0E946923882309F4ADCF80919C
:104AF000800290E0019687709927809380029ECF74
:104B00001F920F920FB60F9211242F933F934F9342
:104B10005F936F937F938F939F93AF93BF93CF9345
:104B2000DF93EF93FF93D091E900DF708091EC0069
:104B3000C82FC17080FDC0E81092E9008091F0009C
:104B4000877F8093F00078940E9456161092E900B7
:104B50008091F00088608093F000CD2BCF70C093DF
:104B6000E900FF91EF91DF91CF91BF91AF919F91BC
:104B70008F917F916F915F914F913F912F910F9006
:104B80000FBE0F901F9018951F920F920FB60F92A5
:104B900011242F933F934F935F936F937F938F9342
:104BA0009F93AF93BF93EF93FF938091E10082FFB8
:104BB00015C08091E20082FF11C08091E1008B7FDF
:104BC0008093E1002091F4022F5F822F62E30E9424
:104BD000412B992309F4E8C02093F4028091DA0074
:104BE00080FF28C08091D80080FF24C08091DA0027
:104BF0008E7F8093DA008091D90080FF0BC180E125
:104C000089BD82E189BD09B400FEFDCF81E08093BA
:104C1000220383EF9DE00E94C4078091F502811179
:104C200009C00E9466080E9431098091E2008460F8
:104C30008093E2008091E10080FF1BC08091E20040
:104C400080FF17C08091E2008E7F8093E200809108
:104C5000E20080618093E2008091D80080628093BE
:104C6000D80019BC85E0809322038BEF9DE00E9461
:104C7000C4078091E10084FF57C08091E20084FF67
:104C800053C080E189BD82E189BD89B5982F9170BB
:104C900080FFFBCF8091D8008F7D8093D8008091DA
:104CA000E1008F7E8093E1008091E2008F7E80930F
:104CB000E2008091E20081608093E2008091230312
:104CC000882309F4B1C084E08093220388E39EE046
:104CD0000E94C4070E9441160E94C90A0E94D40D76
:104CE0001092FD028091FC028823E1F08091F7028E
:104CF00081608093F7028091F60280FF0DC01F92C1
:104D000081E08F938FEF9DE09F938F930E945D08CA
:104D10000F900F900F900F908091F70260E08695B2
:104D20000E94041D0E94E21C8091E10083FF2BC0C1
:104D30008091E20083FF27C08091E100877F80930C
:104D4000E10082E080932203109223038091E1002E
:104D50008E7F8093E1008091E2008E7F8093E2005D
:104D60008091E20080618093E20042E060E080E0B8
:104D70000E94FF088091F00088608093F0008CE32F
:104D80009EE00E94C407FF91EF91BF91AF919F9168
:104D90008F917F916F915F914F913F912F910F90E4
:104DA0000FBE0F901F9018951092F4028091F3029D
:104DB000882309F413CF809122038430C1F49091A9
:104DC000E9009F702091EC00822F817020FD80E827
:104DD000892B93E09093E9009091EB0090FF04C041
:104DE0009091EE0097FD08C08F708093E9001092BB
:104DF000F302F4CE1092F1009091E80095FDFACF05
:104E00009091E80090FFF0CF9091E8009E7790930A
:104E1000E800EACF19BC1092220387EF9DE00E94C0
:104E2000C4071092F50206CF8091E30087FD93E05E
:104E3000909322034BCFCDB7DEB72B970FB6F894E4
:104E4000DEBF0FBECDBF84B7877F84BF0FB6F89497
:104E5000A895809160008861809360001092600046
:104E60000FBE80E890E00FB6F894809361009093B5
:104E700061000FBE85B7806885BF85B7806885BF34
:104E80000E9466080E9431098091E200846080934C
:104E9000E2008AED9DE090939D0180939C017894BF
:104EA000809122038823A1F01091E9001F70909156
:104EB000EC00892F817090FD80E8182B1092E9009A
:104EC0008091E80083FD0E9456161F701093E90040
:104ED00082E084BD93E095BD9AEF97BD80936E000C
:104EE00080E30E947F0B81E30E947F0B84E90E9494
:104EF0007F0B87E90E947F0B84E30E947F0B0EE704
:104F000011E04DE8E42E41E0F42EF80181918F018B
:104F10000E947F0BE016F106C1F71092C3021092B7
:104F2000C2021092D7021092D6021092C5021092BD
:104F3000C4021092D9021092D8021092C7021092A5
:104F4000C6021092DB021092DA021092C90210928D
:104F5000C8021092DD021092DC021092CB02109275
:104F6000CA021092DF021092DE020E9418118FE333
:104F70009CE90197F1F700C000000E941811809190
:104F8000D60280FF08C06FEF7FEF90E080E00E94C4
:104F9000252C0E94F50990E080E00E94012C8C3EB7
:104FA0009E4F11F00E94D7156E9A769890E080E09F
:104FB0000E94012C8C3E9E4F11F00E94D71582E07A
:104FC00090E00E94F32B8093F6020E945B14909372
:104FD000D1028093D00283E090E00E94F32B682FEF
:104FE00070E090E080E00E94CD128091D2028111A9
:104FF000E0C08091F60280FF14C087E39DE09F939C
:105000008F930E945D088091F6020F900F9080FFB1
:1050100008C081E29DE09F938F930E945D080F90EE
:105020000F9090E080E00E94012C8C3E9E4F81F01A
:105030008091F60280FF08C089EF9CE09F938F93D8
:105040000E945D080F900F900E94D7150E94C8150E
:1050500088E090E00E94FB2B6093F7027093F802C7
:105060008093F9029093FA026E7FD1F48091F60258
:1050700080FF08C080EB9CE09F938F930E945D08A7
:105080000F900F900E94C81588E090E00E94FB2BC3
:105090006093F7027093F8028093F9029093FA02FA
:1050A0000E94DA0A8091F60280FF76C087E99CE0D0
:1050B0009F938F930E945D088091F6020F900F904E
:1050C00080FF6AC08091F70281701F928F938AE7F8
:1050D0009CE09F938F930E945D088091F6020F9051
:1050E0000F900F900F9080FF57C08091F702869528
:1050F0001F928F938FE59CE09F938F930E945D0892
:105100008091F6020F900F900F900F9080FF44C097
:105110008091F8021F928F9385E49CE09F938F9378
:105120000E945D088091F6020F900F900F900F90F3
:1051300080FF32C08091F9021F928F938BE29CE036
:105140009F938F930E945D088091F6020F900F90BD
:105150000F900F9080FF20C08091FA021F928F93D2
:1051600081E19CE09F938F930E945D088091F602FD
:105170000F900F900F900F9080FF0EC08091FB0258
:105180001F928F9385EF9BE09F938F930E945D0802
:105190000F900F900F900F901092E7028091F702FE
:1051A00080FF04C060E086950E94041D81E080932A
:1051B000D20282E191E09093D4028093D30282EEF6
:1051C0009DE00E94C40780912203853079F10E94FE
:1051D000181129EE622E22E0722E36ED432E32E0B7
:1051E000532E10E000E00B87F201E190F1902F01C7
:1051F000F301A190B1903F01AE14BF0409F089C042
:105200000F5F1F4F0530110571F78FEF8E838F836E
:1052100018860E94150A8160782F9A8789874E81A7
:105220005F8168858A850E94F324A4C08EED9DE08D
:105230000E94C40780912203843009F456C0109262
:10524000D50288E190E020E40FB6F894A895809309
:1052500060000FBE2093600080E00E94D40D0E9489
:10526000C3138091FD02811129C081E08093FD026A
:105270008091F702982F91709093FC028E7F80931B
:10528000F7028091F60280FF0CC01F921F928EE4FD
:105290009DE09F938F930E945D080F900F900F9059
:1052A0000F900E94C3138FEF90E7E2E0815090408F
:1052B000E040E1F700C000000E94B70E83B7817F95
:1052C000846083BF83B7816083BF7894889583B7F8
:1052D0008E7F83BF0FB6F894A89580916000886197
:1052E00080936000109260000FBE8091210388239C
:1052F00009F469CF0E941811E6EDF2E080EE92E029
:1053000021913191232B09F05BC18E179F07C1F7C3
:105310005ACF8091F60281FDA5C0AE24BF2480E063
:10532000CC24C394D12C96012A213B21232B09F4B0
:10533000D4C08983EB85EA83EC20FD2081E0EF284F
:1053400009F480E08B830E94150A8160782F9D8389
:105350008C8349815A816B818D810E94F324000FD7
:10536000111FF801E751FD4F80819181C826D92690
:10537000D182C0828091E702882309F441C08091E4
:10538000E602E091F702E695E81BE093E202823044
:1053900009F0AAC0F0E0E054F24FE4910E2F10E0C3
:1053A000F4EFEF2EF0E1FF2E8091E302882389F0E5
:1053B0001092E3020E94150A980120953095820F01
:1053C000931F9093E1028093E0021092E502109205
:1053D000E4028091E0029091E1020E94060A8017A7
:1053E000910770F0E091E002F091E1020E0F1F1FB3
:1053F0001093E1020093E00280EE92E0F70109953C
:105400000E94C90A9091E802891709F4DCCE0E9433
:10541000C90A182F8093E8028091F60282FF1EC00D
:1054200080FF1CC08BEC9DE00E94C4078091F602B7
:1054300080FF14C01F921F9386EC9DE09F938F9373
:105440000E945D088091F6020F900F900F900F90D0
:1054500080FF04C084EC9DE00E94C407812F0E945D
:10546000D40DB1CE88E99DE00E94C40786ED882E58
:1054700082E0982ED12CC12CDF92CF9283E99DE05F
:105480009F938F930E945D0880E99DE00E94C4076E
:10549000F40180812180F2E08F0E911C0E94210A8C
:1054A000382E822D0E94210A3F928F938AE89DE038
:1054B0009F938F930E945D0888E89DE00E94C40737
:1054C000FFEFCF1ADF0A0FB6F894DEBF0FBECDBFD5
:1054D00095E0C916D10481F620CF8F5FCC0CDD1C7E
:1054E0008F3009F020CF8CCE863059F4F0E0E354B1
:1054F000F24FE4910E2F10E0E8E0EE2EE1E1FE2EF7
:1055000053CF893061F4E695F0E0E654F24FE49130
:105510000E2F10E07CEEE72E7EE0F72E45CF8F3089
:1055200061F4E695F0E0E954F24FE4910E2F10E0BB
:1055300066E1E62E6FE0F62E37CF853159F4F0E0C4
:10554000EC54F24FE4910E2F10E05AE7E52E5FE0A5
:10555000F52E2ACF08E210E028ECE22E2FE0F22E02
:10556000883109F421CF833249F4E2EBFDE0059163
:1055700014914BE9E42E40E1F42E16CF04EF11E034
:1055800091E5E92E90E1F92E843209F40DCF8532B0
:1055900081F48E2F63E00E94412BE92FF0E0E1556A
:1055A000F24FE4910E2F10E032EDE32E33E1F32EB3
:1055B000FBCE00ED17E080EFE82E89E0F82EF4CE68
:1055C00080E189BD82E189BD09B400FEFDCF8091F3
:1055D000D8008F7D8093D8008091E0008260809316
:1055E000E0008091E00081FDFCCFEDCD78941F922A
:1055F0001FB61F9211248F939F93AF93BF938091F7
:10560000BC029091BD02A091BE02B091BF02019672
:10561000A11DB11D8093BC029093BD02A093BE0258
:10562000B093BF02BF91AF919F918F911F901FBE0A
:105630001F9018951F921FB61F9211248F939F934E
:10564000AF93BF938091D502811113C08091BC02AA
:105650009091BD02A091BE02B091BF024196A11DE2
:10566000B11D8093BC029093BD02A093BE02B09383
:10567000BF02BF91AF919F918F911F901FBE1F904E
:105680001895991B79E004C0991F961708F0961B8E
:10569000881F7A95C9F780950895AA1BBB1B51E115
:1056A00007C0AA1FBB1FA617B70710F0A61BB70B92
:1056B000881F991F5A95A9F780959095BC01CD0137
:1056C000089597FB072E16F4009407D077FD09D0B4
:1056D0000E944D2B07FC05D03EF4909581959F4F7D
:1056E0000895709561957F4F0895EE0FFF1F059007
:1056F000F491E02D09940E948F2C332312F48A1B1D
:105700009B0B0C94852B0E948F2CB7FF0895821B56
:10571000930B08958F929F92AF92BF92CF92DF9298
:10572000EF92FF92CF93DF93EC01688179818A81B8
:105730009B81611571058105910521F464E279ED84
:105740008BE597E02DE133EF41E050E00E943B2CE8
:1057500049015A019B01AC01A7EAB1E40E945A2C0D
:105760006B017C01ACEEB4EFA50194010E94682CA2
:10577000DC01CB018C0D9D1DAE1DBF1DB7FF03C00D
:105780000197A109B04888839983AA83BB839F7737
:10579000DF91CF91FF90EF90DF90CF90BF90AF90CF
:1057A0009F908F9008950E948A2B089580E091E049
:1057B0000E948A2B0895B0E0A0E0809300019093AE
:1057C0000101A0930201B09303010895FC0141502F
:1057D000504030F001900616D1F73197CF0108956F
:1057E000882799270895F999FECF92BD81BDF89A2F
:1057F000992780B50895A6E1B0E044E050E00C940C
:105800002D2CA8E1B0E042E050E00C942D2C262F86
:10581000F999FECF92BD81BDF89A019700B40216A6
:1058200039F01FBA20BD0FB6F894FA9AF99A0FBE54
:1058300008950396272F0E94082C0E94072C252FDD
:105840000E94082C242F0C94082C0196272F0E94CC
:10585000082C0C94072CDC01CB01FC01F999FECF3C
:1058600006C0F2BDE1BDF89A319600B40D924150E8
:105870005040B8F70895052E97FB1EF400940E943F
:10588000522C57FD07D00E946D2C07FC03D04EF41C
:105890000C94522C50954095309521953F4F4F4F89
:1058A0005F4F089590958095709561957F4F8F4FCC
:1058B0009F4F08950E948F2CA59F900DB49F900D2F
:1058C000A49F800D911D11240895B7FF0C945A2CAC
:1058D0000E945A2C821B930B0895A1E21A2EAA1B38
:1058E000BB1BFD010DC0AA1FBB1FEE1FFF1FA21790
:1058F000B307E407F50720F0A21BB30BE40BF50B8D
:10590000661F771F881F991F1A9469F76095709515
:10591000809590959B01AC01BD01CF010895A29F98
:10592000B001B39FC001A39F700D811D1124911D73
:10593000B29F700D811D1124911D0895F894FFCF21
:10594000BF0DBF0DC80DC80DCA0DC80DC80DC80DBF
:10595000BF0DBF0DCF0DC80DC80DCF0D3917611785
:10596000B4176117B4179417CC17B417C918D61801
:10597000BB1AA81ACC1A4019921B921BA31A921B8D
:10598000921BF81A921B081B781B921B921B921BEE
:10599000921B2B1B921B921B181B921BE31A921B30
:1059A000921B901B901B901B901B901B901B901B9D
:1059B000901B901B8A1B921BBB1A9C1A921B921B5A
:1059C000921B921B921B921B921B921B921B921B6F
:1059D0008A1B921B921BA31A921B8E1B8E1B8E1B63
:1059E0008E1B8E1B8E1B8E1B8E1B8E1B8A1B962066
:1059F0009620112111216721CB20CB20CB208121A2
:105A00005722662266226F1FD01FD71FDC1FE11F9F
:105A1000E61FEB1FF01FF51FFA1FFF1F04200720D2
:0E5A20000C200F201220152018201B201E2005
:105A2E000100000001191A1B1C1D1E1F202122013E
:105A3E000201F209770EF109730E6F0E01000102D9
:105A4E000202020606060909090909090F0F0F0FBE
:105A5E000F0F1515151819191919191919191919C9
:105A6E002324252525252525818283E200E900EAC8
:105A7E0000B500B600B700CD008301CC008A0192BC
:105A8E000194012102230224022502260227022A62
:105A9E0002B300B4006F0070003031949734F0F10F
:105AAE00F4F5F6F7679695939291373332406D225F
:0C5ABE003B01CE00AC00520E6B0E840EBB
:00000001FF
